{
  "abi": [
    {
      "inputs": [
        {
          "internalType": "address[]",
          "name": "_owners",
          "type": "address[]"
        },
        {
          "internalType": "uint256",
          "name": "_required",
          "type": "uint256"
        }
      ],
      "stateMutability": "nonpayable",
      "type": "constructor"
    },
    {
      "anonymous": false,
      "inputs": [
        {
          "indexed": true,
          "internalType": "address",
          "name": "owner",
          "type": "address"
        },
        {
          "indexed": true,
          "internalType": "uint256",
          "name": "txId",
          "type": "uint256"
        }
      ],
      "name": "Approve",
      "type": "event"
    },
    {
      "anonymous": false,
      "inputs": [
        {
          "indexed": true,
          "internalType": "address",
          "name": "sender",
          "type": "address"
        },
        {
          "indexed": false,
          "internalType": "uint256",
          "name": "amount",
          "type": "uint256"
        }
      ],
      "name": "Deposit",
      "type": "event"
    },
    {
      "anonymous": false,
      "inputs": [
        {
          "indexed": true,
          "internalType": "uint256",
          "name": "txId",
          "type": "uint256"
        }
      ],
      "name": "Execute",
      "type": "event"
    },
    {
      "anonymous": false,
      "inputs": [
        {
          "indexed": true,
          "internalType": "address",
          "name": "owner",
          "type": "address"
        },
        {
          "indexed": true,
          "internalType": "uint256",
          "name": "txId",
          "type": "uint256"
        }
      ],
      "name": "Revoke",
      "type": "event"
    },
    {
      "anonymous": false,
      "inputs": [
        {
          "indexed": true,
          "internalType": "uint256",
          "name": "txId",
          "type": "uint256"
        }
      ],
      "name": "Submit",
      "type": "event"
    },
    {
      "inputs": [
        {
          "internalType": "uint256",
          "name": "_txId",
          "type": "uint256"
        }
      ],
      "name": "approve",
      "outputs": [],
      "stateMutability": "nonpayable",
      "type": "function"
    },
    {
      "inputs": [
        {
          "internalType": "uint256",
          "name": "",
          "type": "uint256"
        },
        {
          "internalType": "address",
          "name": "",
          "type": "address"
        }
      ],
      "name": "approved",
      "outputs": [
        {
          "internalType": "bool",
          "name": "",
          "type": "bool"
        }
      ],
      "stateMutability": "view",
      "type": "function"
    },
    {
      "inputs": [
        {
          "internalType": "uint256",
          "name": "_txId",
          "type": "uint256"
        }
      ],
      "name": "execute",
      "outputs": [],
      "stateMutability": "payable",
      "type": "function"
    },
    {
      "inputs": [
        {
          "internalType": "address",
          "name": "",
          "type": "address"
        }
      ],
      "name": "isOwner",
      "outputs": [
        {
          "internalType": "bool",
          "name": "",
          "type": "bool"
        }
      ],
      "stateMutability": "view",
      "type": "function"
    },
    {
      "inputs": [
        {
          "internalType": "uint256",
          "name": "",
          "type": "uint256"
        }
      ],
      "name": "owners",
      "outputs": [
        {
          "internalType": "address",
          "name": "",
          "type": "address"
        }
      ],
      "stateMutability": "view",
      "type": "function"
    },
    {
      "inputs": [],
      "name": "required",
      "outputs": [
        {
          "internalType": "uint256",
          "name": "",
          "type": "uint256"
        }
      ],
      "stateMutability": "view",
      "type": "function"
    },
    {
      "inputs": [
        {
          "internalType": "address",
          "name": "easyReturnAddress",
          "type": "address"
        }
      ],
      "name": "returnEth",
      "outputs": [],
      "stateMutability": "nonpayable",
      "type": "function"
    },
    {
      "inputs": [
        {
          "internalType": "uint256",
          "name": "_txId",
          "type": "uint256"
        }
      ],
      "name": "revoke",
      "outputs": [],
      "stateMutability": "nonpayable",
      "type": "function"
    },
    {
      "inputs": [
        {
          "internalType": "address",
          "name": "_to",
          "type": "address"
        },
        {
          "internalType": "uint256",
          "name": "_value",
          "type": "uint256"
        },
        {
          "internalType": "bytes",
          "name": "_data",
          "type": "bytes"
        }
      ],
      "name": "submit",
      "outputs": [],
      "stateMutability": "payable",
      "type": "function"
    },
    {
      "inputs": [
        {
          "internalType": "uint256",
          "name": "",
          "type": "uint256"
        }
      ],
      "name": "transactions",
      "outputs": [
        {
          "internalType": "address",
          "name": "to",
          "type": "address"
        },
        {
          "internalType": "uint256",
          "name": "value",
          "type": "uint256"
        },
        {
          "internalType": "bytes",
          "name": "data",
          "type": "bytes"
        },
        {
          "internalType": "bool",
          "name": "executed",
          "type": "bool"
        }
      ],
      "stateMutability": "view",
      "type": "function"
    },
    {
      "stateMutability": "payable",
      "type": "receive"
    }
  ],
  "bytecode": {
    "object": "0x60806040523480156200001157600080fd5b506040516200120d3803806200120d833981016040819052620000349162000289565b60008251116200007f5760405162461bcd60e51b81526020600482015260116024820152701bdddb995c8a1cca481c995c5d5a5c9959607a1b60448201526064015b60405180910390fd5b60008111801562000091575081518111155b620000e95760405162461bcd60e51b815260206004820152602160248201527f696e76616c6964207265717569726564206e756d626572206f66206f776e65726044820152607360f81b606482015260840162000076565b60005b82518110156200024b5760008382815181106200010d576200010d62000363565b6020026020010151905060006001600160a01b0316816001600160a01b0316036200016b5760405162461bcd60e51b815260206004820152600d60248201526c34b73b30b634b21037bbb732b960991b604482015260640162000076565b6001600160a01b03811660009081526001602052604090205460ff1615620001d65760405162461bcd60e51b815260206004820152601360248201527f6f776e6572206973206e6f7420756e6971756500000000000000000000000000604482015260640162000076565b6001600160a01b031660008181526001602081905260408220805460ff191682179055815490810182559080527f290decd9548b62a8d60345a988386fc84ba6bc95484008f6362f93160ef3e5630180546001600160a01b031916909117905580620002428162000379565b915050620000ec565b5060025550620003a1565b634e487b7160e01b600052604160045260246000fd5b80516001600160a01b03811681146200028457600080fd5b919050565b600080604083850312156200029d57600080fd5b82516001600160401b0380821115620002b557600080fd5b818501915085601f830112620002ca57600080fd5b8151602082821115620002e157620002e162000256565b8160051b604051601f19603f8301168101818110868211171562000309576200030962000256565b6040529283528183019350848101820192898411156200032857600080fd5b948201945b83861015620003515762000341866200026c565b855294820194938201936200032d565b97909101519698969750505050505050565b634e487b7160e01b600052603260045260246000fd5b6000600182016200039a57634e487b7160e01b600052601160045260246000fd5b5060010190565b610e5c80620003b16000396000f3fe6080604052600436106100955760003560e01c8063905b03e511610059578063905b03e5146101c35780639ace38c2146101e3578063b759f95414610213578063dc8452cd14610233578063fe0d94c11461025757600080fd5b8063025e7c27146100d657806314de327f1461011357806320c5429b146101285780632f54bf6e146101485780638253951a1461018857600080fd5b366100d15760405134815233907fe1fffcc4923d04b559f4d29a8bfc6cda04eb5b0d3c460751c2402c5c5cc9109c9060200160405180910390a2005b600080fd5b3480156100e257600080fd5b506100f66100f13660046109e5565b61026a565b6040516001600160a01b0390911681526020015b60405180910390f35b610126610121366004610a1a565b610294565b005b34801561013457600080fd5b506101266101433660046109e5565b6103dd565b34801561015457600080fd5b50610178610163366004610aa1565b60016020526000908152604090205460ff1681565b604051901515815260200161010a565b34801561019457600080fd5b506101786101a3366004610ac3565b600460209081526000928352604080842090915290825290205460ff1681565b3480156101cf57600080fd5b506101266101de366004610aa1565b61051f565b3480156101ef57600080fd5b506102036101fe3660046109e5565b610558565b60405161010a9493929190610aef565b34801561021f57600080fd5b5061012661022e3660046109e5565b61062a565b34801561023f57600080fd5b5061024960025481565b60405190815260200161010a565b6101266102653660046109e5565b610781565b6000818154811061027a57600080fd5b6000918252602090912001546001600160a01b0316905081565b3360009081526001602052604090205460ff166102cc5760405162461bcd60e51b81526004016102c390610b5d565b60405180910390fd5b60036040518060800160405280866001600160a01b0316815260200185815260200184848080601f0160208091040260200160405190810160405280939291908181526020018383808284376000920182905250938552505050602091820181905283546001808201865594825290829020835160049092020180546001600160a01b0319166001600160a01b039092169190911781559082015192810192909255604081015190919060028201906103859082610c1d565b50606091909101516003918201805460ff1916911515919091179055546103ae90600190610cf3565b6040517f08324b3d745b914e3abd4ffbfead91e3b78391a98c173202129215ab933adfbe90600090a250505050565b3360009081526001602052604090205460ff1661040c5760405162461bcd60e51b81526004016102c390610b5d565b6003548190811061042f5760405162461bcd60e51b81526004016102c390610d0c565b816003818154811061044357610443610d37565b600091825260209091206003600490920201015460ff16156104775760405162461bcd60e51b81526004016102c390610d4d565b600083815260046020908152604080832033845290915290205460ff166104d25760405162461bcd60e51b815260206004820152600f60248201526e1d1e081b9bdd08185c1c1c9bdd9959608a1b60448201526064016102c3565b6000838152600460209081526040808320338085529252808320805460ff191690555185927fec9ab91322523c899ede7830ec9bfc992b5981cdcc27b91162fb23de5791117b91a3505050565b6040516001600160a01b038216904780156108fc02916000818181858888f19350505050158015610554573d6000803e3d6000fd5b5050565b6003818154811061056857600080fd5b60009182526020909120600490910201805460018201546002830180546001600160a01b03909316945090929161059e90610b9a565b80601f01602080910402602001604051908101604052809291908181526020018280546105ca90610b9a565b80156106175780601f106105ec57610100808354040283529160200191610617565b820191906000526020600020905b8154815290600101906020018083116105fa57829003601f168201915b5050506003909301549192505060ff1684565b3360009081526001602052604090205460ff166106595760405162461bcd60e51b81526004016102c390610b5d565b6003548190811061067c5760405162461bcd60e51b81526004016102c390610d0c565b6000828152600460209081526040808320338452909152902054829060ff16156106e85760405162461bcd60e51b815260206004820152601860248201527f74782077617320617070726f766564206279206f776e6572000000000000000060448201526064016102c3565b82600381815481106106fc576106fc610d37565b600091825260209091206003600490920201015460ff16156107305760405162461bcd60e51b81526004016102c390610d4d565b6000848152600460209081526040808320338085529252808320805460ff191660011790555186927f90ec57f18fa7b15c6b8d5e4d1deb90796c74b2ff23d4d0cecad0cb42a96b312891a350505050565b600354819081106107a45760405162461bcd60e51b81526004016102c390610d0c565b81600381815481106107b8576107b8610d37565b600091825260209091206003600490920201015460ff16156107ec5760405162461bcd60e51b81526004016102c390610d4d565b6002546107f88461095d565b10156108465760405162461bcd60e51b815260206004820152601f60248201527f617070726f76616c73206973206c657373207468616e2072657175697265640060448201526064016102c3565b60006003848154811061085b5761085b610d37565b6000918252602082206003600490920201908101805460ff191660019081179091558154908201546040519294506001600160a01b03909116916108a3906002860190610d84565b60006040518083038185875af1925050503d80600081146108e0576040519150601f19603f3d011682016040523d82523d6000602084013e6108e5565b606091505b505090508061092b5760405162461bcd60e51b8152602060048201526012602482015271151c985b9cd858dd1a5bdb8819985a5b195960721b60448201526064016102c3565b60405185907fddb556f1d2c1ec821e910b019d3685b229db152a0ecd517ca7e24b8bd713928990600090a25050505050565b6000805b6000548110156109df5760046000848152602001908152602001600020600080838154811061099257610992610d37565b60009182526020808320909101546001600160a01b0316835282019290925260400190205460ff16156109cd576109ca600183610dfa565b91505b806109d781610e0d565b915050610961565b50919050565b6000602082840312156109f757600080fd5b5035919050565b80356001600160a01b0381168114610a1557600080fd5b919050565b60008060008060608587031215610a3057600080fd5b610a39856109fe565b935060208501359250604085013567ffffffffffffffff80821115610a5d57600080fd5b818701915087601f830112610a7157600080fd5b813581811115610a8057600080fd5b886020828501011115610a9257600080fd5b95989497505060200194505050565b600060208284031215610ab357600080fd5b610abc826109fe565b9392505050565b60008060408385031215610ad657600080fd5b82359150610ae6602084016109fe565b90509250929050565b60018060a01b038516815260006020858184015260806040840152845180608085015260005b81811015610b315786810183015185820160a001528201610b15565b50600060a0828601015260a0601f19601f83011685010192505050821515606083015295945050505050565b6020808252600d908201526c34b73b30b634b21037bbb732b960991b604082015260600190565b634e487b7160e01b600052604160045260246000fd5b600181811c90821680610bae57607f821691505b6020821081036109df57634e487b7160e01b600052602260045260246000fd5b601f821115610c1857600081815260208120601f850160051c81016020861015610bf55750805b601f850160051c820191505b81811015610c1457828155600101610c01565b5050505b505050565b815167ffffffffffffffff811115610c3757610c37610b84565b610c4b81610c458454610b9a565b84610bce565b602080601f831160018114610c805760008415610c685750858301515b600019600386901b1c1916600185901b178555610c14565b600085815260208120601f198616915b82811015610caf57888601518255948401946001909101908401610c90565b5085821015610ccd5787850151600019600388901b60f8161c191681555b5050505050600190811b01905550565b634e487b7160e01b600052601160045260246000fd5b81810381811115610d0657610d06610cdd565b92915050565b6020808252601190820152701d1e08191bd95cc81b9bdd08195e1a5cdd607a1b604082015260600190565b634e487b7160e01b600052603260045260246000fd5b60208082526017908201527f74782077617320616c7265616479206578656375746564000000000000000000604082015260600190565b6000808354610d9281610b9a565b60018281168015610daa5760018114610dbf57610dee565b60ff1984168752821515830287019450610dee565b8760005260208060002060005b85811015610de55781548a820152908401908201610dcc565b50505082870194505b50929695505050505050565b80820180821115610d0657610d06610cdd565b600060018201610e1f57610e1f610cdd565b506001019056fea26469706673582212203b04caff34c9e15ea24444e2a2b0053ca6da9152bb2418582746de19c1d0c8f464736f6c63430008140033",
    "linkReferences": {}
  },
  "methodIdentifiers": {
    "approve(uint256)": "b759f954",
    "approved(uint256,address)": "8253951a",
    "execute(uint256)": "fe0d94c1",
    "isOwner(address)": "2f54bf6e",
    "owners(uint256)": "025e7c27",
    "required()": "dc8452cd",
    "returnEth(address)": "905b03e5",
    "revoke(uint256)": "20c5429b",
    "submit(address,uint256,bytes)": "14de327f",
    "transactions(uint256)": "9ace38c2"
  },
  "id": 0
}